:020000040800F2
:10000000780600203D02000845020008470200086B
:10001000490200084B0200084D02000800000000E1
:100020000000000000000000000000004F02000877
:1000300051020008000000005302000855020008A9
:10004000570200085702000857020008570200082C
:10005000570200085702000857020008570200081C
:10006000570200085702000857020008570200080C
:1000700057020008570200085702000857020008FC
:1000800057020008570200085702000857020008EC
:1000900057020008570200085702000857020008DC
:1000A00057020008570200085702000857020008CC
:1000B000570200089513000857020008570200086D
:1000C00057020008570200085702000857020008AC
:1000D000570200088D150008570200085702000853
:1000E000570200085702000857020008570200088C
:1000F000570200085702000857020008570200087C
:10010000570200080000000000000000570200082D
:10011000570200085702000857020008570200085B
:10012000570200085702000857020008570200084B
:1001300057020008570200080000000000000000FD
:10014000570200085702000857020008000000008C
:10015000000000000000000000000000000000009F
:10016000570200085702000857020008570200080B
:1001700057020008570200085702000857020008FB
:1001800057020008570200080000000000000000AD
:100190005702000800F002F800F041F80AA090E8C9
:1001A000000C82448344AAF10107DA4501D100F032
:1001B00036F8AFF2090EBAE80F0013F0010F18BFBE
:1001C000FB1A43F001031847D0170000F017000096
:1001D000103A24BF78C878C1FAD8520724BF30C873
:1001E00030C144BF04680C60704700000023002445
:1001F00000250026103A28BF78C1FBD8520728BF37
:1002000030C148BF0B607047642900F07380002044
:1002100070471FB501F06CFB1FBD10B510BD00F09D
:10022000F6F91146FFF7F5FF01F0C8F900F014FAEE
:1002300003B4FFF7F2FF03BC00F01CFA0948804743
:1002400009480047FEE7FEE7FEE7FEE7FEE7FEE7B8
:10025000FEE7FEE7FEE7FEE704480549054A064BD0
:10026000704700001D12000895010008780000206A
:100270007806002078020020780200200FB41CB518
:10028000074B06AA7B4469460090059800F0A7F941
:100290000020694600F0B6F91CBC5DF814FB0000B4
:1002A0007D03000070B5044685690068C10601D56C
:1002B000302600E02026C00707D070BDD4E9012118
:1002C00030469047206A401C20626D1EF6D570BDF6
:1002D00070B5044685690078C00707D170BDD4E9C0
:1002E000012120209047206A401C20626D1EF6D517
:1002F00070BD00002DE9F041064600241068752904
:10030000314616A510D0AFF30080002802DA404233
:1003100013A507E031688A0701D512A502E0490755
:1003200004D511A5012401E0AFF3008000210A22C9
:1003300006F1240709E0B0FBF2FCB0FBF2F302FB8C
:100340001C00303078541846491C0028F3D123464D
:100350002A463046BDE8F04100F0E3B80000000056
:100360002D0000002B000000200000002DE9F047C8
:100370004FF0000A89460446C0F820A02046E168F4
:100380008847002876D0252806D0D4E90121904757
:10039000206A401C2062F1E7E1682046002588477A
:1003A000C4F81CA006460027C4F818A02A2E09D0BD
:1003B000304601F0FBF838B304EB8708303EC8F84C
:1003C000186019E059F8041B204604EB870291617C
:1003D000E1688847012F064618D1E069002820DA35
:1003E00025F020051DE0D8F8180000EB800006EB92
:1003F00040003038C8F818002046E16888470646B3
:1004000001F0D4F80028EED1012F0AD02E2E08D109
:100410002046E16888477F1C0646022F45F02005EC
:10042000C4DBA069002803DA404245F00105A06161
:10043000E80701D025F01005B6B1A6F14100192852
:1004400002D8203645F400654A46314620462560EC
:100450004D46FFF7D9FE58B1012806D0ED1D25F015
:10046000070000F1080989E704E005F1040985E7C0
:1004700030468AE7206ABDE8F08710B5431C02E0E9
:1004800010F8011B71B18107FAD14FF0013202C897
:100490008C1A8C4314EAC211F9D0C01A0A0603D090
:1004A000C01E10BDC01A10BD0A0401D0801E10BDB0
:1004B0000902FCD0401E10BD10B5203AC0F00B80E0
:1004C000B1E81850203AA0E81850B1E81850A0E858
:1004D0001850BFF4F5AF5FEA027C24BFB1E81850B2
:1004E000A0E8185044BF18C918C0BDE810405FEA22
:1004F000827C24BF51F8043B40F8043B08BF70479E
:10050000D20728BF31F8023B48BF11F8012B28BFA2
:1005100020F8023B48BF00F8012B70477047704736
:1005200070472DE9F0470D4699469246044600F182
:1005300024080168880604D5E06921F010012160D3
:1005400000E00120A84201DD471B00E00027A1696F
:100550007A1902EB0900081AA0612078C00602D4BB
:100560002046FFF79FFE002608E0D4E901211AF893
:1005700006009047206A401C761C20624E45F4DB42
:100580002078C0060AD52046FFF78CFE06E0D4E9A5
:10059000012130209047206A401C2062381EA7F1BC
:1005A0000107F4DC07E0D4E9012118F805009047C1
:1005B000206A401C2062281EA5F10105F3DC2046BC
:1005C000FFF786FE2078000602D50220BDE8F087FE
:1005D0000120FBE701694A1C02610878704700B5F9
:1005E0008FB0CDE901310021059105497944CDE96C
:1005F000031011466846FFF7B9FE0FB000BD0000BA
:10060000E5FFFFFF0A6802F8010B0A6070477546B4
:1006100000F02CF8AE4605006946534620F007006E
:10062000854618B020B5FFF717FEBDE820404FF013
:1006300000064FF000074FF000084FF0000B21F0CC
:100640000701AC46ACE8C009ACE8C009ACE8C00999
:10065000ACE8C0098D46704710B50446AFF3008082
:100660002046BDE81040FFF7E3BD0000004870479A
:100670001400002001491820ABBEFEE7260002004E
:100680007047000010B56048406940F480205E4922
:1006900048615E48006820F400505C4908600846E4
:1006A000006820F4805008600846006820F0800050
:1006B00008600846006820F04000086008460068AE
:1006C00020F0200008600846006820F01000086054
:1006D000081F006820F0406040F08060091F08603B
:1006E0000846006820F0407040F0807008600846BE
:1006F000006820F4404040F48040086008460068EC
:1007000020F4405040F4805008600846006820F40F
:10071000406040F4806008600846006820F4407043
:1007200040F48070086039481030006840F4805010
:100730003649103108600846006820F4005008600F
:100740000846006820F0F00040F0300008600846DD
:10075000006820F480500860052000F013FA2B4850
:100760001030006840F48050284910310860084675
:10077000006820F0F00040F0300008600846006893
:1007800020F480500860012000F0FCF91F48103070
:10079000006840F480501D49103108600846006828
:1007A00020F0F00040F0300008600846006820F4B7
:1007B00080500860012000F0E5F91448103000680E
:1007C00040F480501149103108600846006820F05C
:1007D000F00040F0200008600846006820F48050D7
:1007E0000860022000F0CEF9282000F02FFB08203E
:1007F00000F02CFB00F022FB062000F027FB0C2071
:1008000000F024FB10BD000000100240040400486A
:100810003E48806940F400603C4988613C4800687B
:1008200020F010003A4908603948283000686FF31A
:100830000F0040F04300364928310860081D006869
:100840006FF30F0044F62061084431492C310860F1
:100850002F48183000682F49084040F060002C49AC
:10086000183108602A48006840F080002849086074
:1008700027484430006840F400402549443108606E
:1008800023482030006840F00400214920310860EE
:100890001F48006840F001001D4908601B4840697E
:1008A00040F40030194948614FF09040006820F44E
:1008B00040304FF0904108600846006840F4003036
:1008C00008600846406A40F006014FF090404162DF
:1008D0001148406800F480700F4948604FF0904024
:1008E000006820F003004FF090410860084600685F
:1008F00040F0010008600846006820F00C00086025
:100900000846006840F0040008607047001002408C
:10091000002C01408FFFFEFF0010004808490968C5
:10092000074908604FF09041496941F002014FF0DA
:10093000904251611146496921F0010151617047AE
:10094000342C0140064800680020054908604FF03B
:100950009040406920F003004FF09041486170479B
:10096000342C01404048806940F400603E49886171
:100970003E48006820F010003C4908603B482830A1
:1009800000686FF30F0040F04300384928310860D9
:10099000081D00686FF30F0044F6206108443349D6
:1009A0002C3108603148183000683149084040F463
:1009B000C0402E49183108602C48006840F0800083
:1009C0002A49086029484430006840F4004027491B
:1009D0004431086025482030006840F04000234939
:1009E000203108602148006840F001001F4908607C
:1009F0001D48406940F400301B4948614FF0904069
:100A0000006820F440204FF09041086008460068DC
:100A100040F4002008600846406A40F006014FF0AC
:100A2000904041621348406800F48070114948606A
:100A30000D48406940F480200B4948610E48006829
:100A400020F003000C4908600846006840F00100EF
:100A500008600846006820F00C000860084600683E
:100A600040F004000860704700100240002C014074
:100A7000FF8FFFFE00100048000400480749096886
:100A8000064908600649096841F00201044A1160FC
:100A90001146096821F0010111607047382C0140AE
:100AA0001404004805480068002004490860044810
:100AB000006820F00300024908607047382C0140AC
:100AC0001404004810B588B0FFF7DCFD00F092F880
:100AD00000F0B4F9802000F0B9F923A000F01EFA6C
:100AE000882000F0B3F922A000F018FAFFF790FE7A
:100AF000FFF738FF002432E040F2DC50FFF70EFF32
:100B0000C02000F0A3F91C4802881CA104A8FFF72C
:100B1000B5FB04A800F002FA4FF4FA7000F032F8C6
:100B20004FF41670FFF7AAFFC82000F08FF91448A1
:100B3000028812A16846FFF7A1FB684600F0EEF9B3
:100B40004FF4FA7000F01EF8052000F025F8FFF7CA
:100B5000F9FEFFF7A7FF052000F01EF8641C0A2C21
:100B6000CAD308B010BD00004C65667400000000D8
:100B700052696768740000000A0000202534640090
:100B80000C00002040F29A2100FB01F2002100E05D
:100B9000491C9142FCD37047044900FB01F200213B
:100BA00000E0491C9142FCD37047000090290A00E4
:100BB00070B52DED048B0446204600F088FD41EC15
:100BC000190B9FED0A0B53EC102B00F093FD41EC39
:100BD000180B00F04FFD0546002001E0411C88B2D3
:100BE000A842FBD3BDEC048B70BD00001D5A643BD2
:100BF000DF4FE53F5048406940F400304E494861BE
:100C00004FF09040006820F4405040F400504FF006
:100C1000904108600846006A40F00070086246484B
:100C2000C06940F002004449C861444800681E2081
:100C30004249086041481038006840F001003F49CF
:100C4000103908603D480838006820F002003B4930
:100C5000083908600846006820F008000860374836
:100C60001038006820F00C0034491039086033480F
:100C70000838006840F001003049083908604FF03A
:100C80009040006820F4404040F400404FF0904114
:100C900008600846006A40F0005008622748103893
:100CA000006840F4807025491039086023480838EE
:100CB000006820F0200021490839086008460068D3
:100CC00020F0800008601D481038006820F4406063
:100CD0001A491039086019480838006840F01000B7
:100CE00016490839086015481C38006840F00100B2
:100CF00012491C3908600846006840F0020008608C
:100D00000846006840F0040008601D20002809DB48
:100D100000F01F02012191404209920002F1E022FD
:100D2000C2F8001100BF05482838006840F00100F3
:100D3000024928390860704700100240280400402A
:100D400010B588B0FFF756FFFFF79CFC00F076F86F
:100D5000802000F07BF818A000F0E0F8882000F078
:100D600075F817A000F0DAF8002420E0C02000F0A9
:100D70006DF81548028815A104A8FFF77FFA04A8AA
:100D800000F0CCF84FF4FA70FFF7FCFEC82000F03A
:100D90005DF80F4802880DA16846FFF76FFA6846B4
:100DA00000F0BCF84FF4FA70FFF7ECFE641C094841
:100DB0008442DBD308B010BD4C65667400000000AF
:100DC00052696768740000000A000020253464003E
:100DD0000C00002040420F0010B50446A4F1310081
:100DE000052814D2DFE800F003060A0D100000F019
:100DF00011F80CE0012000F0C5F908E000F0FAF865
:100E000005E0FFF75FFE02E0FFF79AFF10BD00BFAD
:100E100000BFFBE710B5FFF735FC00F00FF88020AE
:100E200000F014F801A000F079F810BD4C43442004
:100E3000576F726B732121203A29000010B50120F1
:100E400000F004F81420FFF79DFE10BD10B5044615
:100E50001748006840F4805015490860084600684B
:100E600020F40050086021091148006861F3071060
:100E70000F4908600846006820F48050086002208E
:100E8000FFF796FE0A48006840F480500849086061
:100E90000846006864F3071008600846006820F4FC
:100EA000805008604FF49670FFF782FE10BD00007E
:100EB0001404004810B504461748006840F48050F8
:100EC000154908600846006840F400500860210990
:100ED0001148006861F307100F4908600846006870
:100EE00020F4805008600220FFF762FE0A48006884
:100EF00040F48050084908600846006864F3071011
:100F000008600846006820F4805008604FF496702E
:100F1000FFF74EFE10BD00001404004870B50446F3
:100F2000002508E0207800B907E02078FFF7C2FF2D
:100F3000681CC5B2641C102DF4DB00BF70BD00003E
:100F40000648406940F4802004494861044800682C
:100F500020F0300002490860704700000010024095
:100F6000000400480648406940F480200449486174
:100F70000448006820F440100249086070470000EF
:100F8000001002400004004800B5A7B09C220449AC
:100F90006846FFF791FA684600F0DCFA27B000BD1A
:100FA000FC1800084FF08041096C4FF08041086444
:100FB000704700000D48406940F480200B494861AB
:100FC0000B48006820F4400040F400000849086025
:100FD0000846406A40F4805105484162001D00689F
:100FE00000F400600249091D0860704700100240CB
:100FF0000004004810B5FFF745FBFFF71FFF8020F6
:10100000FFF724FF0DA0FFF789FFFFF7D3FF00F0E4
:101010001BF800240EE04FF41670FFF7C3FF0A2000
:10102000FFF7BAFD4FF41660FFF7BCFF0A20FFF789
:10103000B3FD641C0A2CEED310BD0000536572761C
:101040006F205465737400001E48C06940F00100B1
:101050001C49C8618804006820F0100089040860F9
:101060000846806A6FF30F0040F04300886208462C
:10107000C06A44F6206108464906C8620846C0694D
:101080001149084040F4C0404FF08041C861084613
:10109000C06940F40060C8610846406C40F40040FC
:1010A00048640846006A40F4805008620846006CB4
:1010B0004FF4167008640846006840F001000860AC
:1010C0007047000000100240FF8FFFFE2B48406970
:1010D00040F40020294948612948006820F4405024
:1010E000274908600846006820F440400860084628
:1010F000006820F4403008600846006820F4402072
:1011000008600846006840F480500860084600689F
:1011100040F4804008600846006840F48030086071
:101120000846006840F480200860081D006820F030
:101130004000091D08600846006820F08000086033
:101140000846006820F4807008600846006820F4B3
:1011500000700860081F006820F0C000091F0860C8
:101160000846006840F040000860054814300068F8
:1011700020F0080002491431086070470010024056
:101180000008004870B50546FFF77CFAFFF79EFFA0
:10119000FFF7D6FEFFF7E6FEFFF750FE8020FFF7D1
:1011A00055FE17A0FFF7BAFE1948006840F0080086
:1011B0001749086000241EE0284600F017FA0120B5
:1011C000FFF7E0FC1348006800F0040000B10125BF
:1011D0003220FFF7D7FC284600F008FA0120FFF77D
:1011E000D1FC0C48006800F4806000B10225322078
:1011F000FFF7C8FC641C08488442DDD370BD0000C2
:10120000537465707065722054657374000000003B
:101210001408004810040048A0860100194800681E
:1012200040F47000174908601748006840F001005A
:10123000154908600846406814490840124948604A
:1012400008460068124908400F49086008460068CF
:1012500020F4802008600846406820F4FE004860C2
:101260000846C06A20F00F00C8620846006B0949B2
:1012700008400549086300208860C8030149803997
:101280000860704788ED00E0001002400CC07FF855
:10129000FFFFF6FECCFC00FF3C49096821F0070186
:1012A0003A4A11601146096841F004011160384959
:1012B000096841F00101364A116000BF34490968EC
:1012C00001F002010029F9D010203149096821F00C
:1012D000F8012F4A11601146096841EA0061116066
:1012E0001146096821F08071116000BF2849096822
:1012F00001F00071B1F1007FF8D02549496821F46F
:10130000C031234A51601146496841F4004151609F
:101310001146496851601146496841F000415160E9
:101320001146496821F4701141F4E01151601146F1
:10133000096841F08071116000BF1549096801F02A
:1013400000710029F9D01249496821F00301104ABF
:1013500051601146496841F00201516000BF0C49DB
:10136000496801F00C010829F9D10949496821F0BF
:10137000F001074A51601146496821F4E06151606B
:101380001146496821F460515160704700200240C5
:10139000001002401748006800F0010028B115480D
:1013A000006820F00100134908601248006800F04E
:1013B000020060B10F48243000680F490988401AC4
:1013C0000E4908800B48243000680B490880094802
:1013D000006800F0040060B1064828300068084941
:1013E0000988401A074908800248283000680449E3
:1013F00008807047100400400E0000200A00002002
:10140000100000200C00002010B54D48806940F409
:1014100080404B4988610846406940F4002048619B
:101420004848006820F47060464908600846006833
:1014300040F42060086043482030006840F4EE002B
:101440004049203108603F480830006840F470602F
:101450003C4908310860081D006820F47060091DCF
:1014600008600846006840F4A06008603548001D28
:10147000006820F030003349091D086032480068D8
:1014800020F00100304908600846006820F0102074
:1014900008600846006820F400400860081D0068E5
:1014A00020F44050091D086041F6D53026490C3122
:1014B00008602548006840F00C0023490860084691
:1014C000006840F00100086000BF1F481C30006841
:1014D00000F400100028F8D000BF1B481C30006842
:1014E00000F480000028F8D01748006840F0200081
:1014F000154908600846006820F080000860252033
:101500000021002804DB0A07130E104A135406E0DA
:101510000A07140E0E4A00F00F031B1FD45400BF1D
:101520002520002809DB00F01F020121914042091B
:10153000920002F1E022C2F8001100BF10BD0000CD
:1015400000100240000800480038014000E400E0BC
:1015500018ED00E070B504462046FEF78EFF054604
:1015600000200DE000BF0849096801F08001002952
:10157000F9D014F8011B044A0C321180411CC8B286
:10158000A842EFD370BD00001C3801400548006838
:1015900000F0200020B1034808300088024908709C
:1015A000704700001C3801401200002030380A2823
:1015B00001D201207047002070470000FFF76CFE49
:1015C000FFF760F8FFF720FFFFF7DEFCFFF736FCC0
:1015D00000BF05480078FFF7FFFB002002490870B4
:1015E0001E20FFF7CFFAF4E712000020052828D2CA
:1015F000DFE800F01B03090F15001B490978891E5D
:10160000194A11701DE018490978891C164A117091
:1016100017E015490978491E134A117011E0124963
:101620000978491C104A11700BE01049096821F42F
:1016300070710E4A11601146096821F008011160AD
:10164000704700BF0849097801F00701064A117088
:10165000074912788A5C0549096862F38911034ACF
:10166000116000BFECE700000000002014080048F3
:10167000010000204FEA1153A3F58063D3F11E034C
:10168000A8BFD3F1200C08DB4FF0004242EAC12290
:1016900052EA505232FA03F0704709420BD4102B31
:1016A000C4BF0020704703F5787CBCF1FF3F05D034
:1016B0004FF0FF3070474FF00000704770B500F0FA
:1016C000C3F800BF4992248000207047F0E7B0FAC9
:1016D00080F310FA03F10AD0C3F11D0303F5806310
:1016E0004FEA41504FEA035202EBD12170474FF0CD
:1016F00000007047DFF848C170B51CEA111E1EBF1C
:101700001CEA13159EEA0C0F95EA0C0F00F06F808F
:1017100081EA030423EA4C134EEAD47E21EA4C11F9
:1017200041F4801143F48013AE44A1FB024CA0FBB2
:101730000365AEF17F7E361955EB0C05A1FB034C1A
:101740004CF10003A0FB021C16EB0C06654153F1A3
:101750000003094218BF46F0010613F4007F0BD1C5
:101760004FEA03314FEA0530340341EA155140EAAC
:1017700016506FF003020AE04FEAC3214FEAC5207A
:10178000F40241EA555140EA56506FF0020202EB72
:101790002E4201EB025585EACE710AD05FEA440C75
:1017A00018BF24F0004450F1000041F1000120EA8C
:1017B000D47040F2FE7C624500D270BDA84214BFD6
:1017C0004FF080444FF04044002E08BF0024BEF18B
:1017D000806FA8BFA1F1C041BDE8704080F2828057
:1017E0004FF0000001F1C04101F0004170479EEA56
:1017F0000C0F0CEA131518BF95EA0C0F06D04FF02A
:10180000000081EA030E0EF0004170BD00F01CF8EC
:101810008900013E00F007B800F009B84FEA430C18
:101820005FEA5C5C08D081EA030100F05BB84FEA34
:10183000410C5FEA5C5CF6D14FF000000149704753
:101840000000FF070000F87F0EF1020E2EF0030EDD
:101850005EF8046B364205D4012A43EB030515F507
:10186000001F12D8012841EB010C1CF5001F0CD8F9
:101870000ED14FEAD17C15F5001F0CEB4C0C0CF18E
:10188000020C08BF4CEBD37C04E04FF0080C01E0E5
:101890004FEAD37C0CEB4C0526FA05F606F007065A
:1018A000B6F1040C06D20EEB860CBDE870404CF08D
:1018B000010C6047DFE80CF0090B02024FF0004119
:1018C0004FF00000A1F5002170BD19461046012817
:1018D00051EB010418BFD4F5001484BF002001F0BF
:1018E000004170BD0808A0F500114FEA31017047B2
:1018F0004FF04070E1EE100A704700000D456E7425
:1019000065722077686174207465737420796F75CF
:1019100020776F756C64206C696B6520746F207222
:10192000756E3B0A0D31202D204C434420546573C5
:10193000740A0D32202D2053746570706572204D2D
:101940006F746F7220546573740A0D33202D205309
:101950006572766F204D6F746F7220546573740AD0
:101960000D34202D204443204D6F746F7220546538
:1019700073740A0D35202D20456E636F64657220E7
:10198000546573740A0A0D52756E20546573742081
:10199000233A200A00000000B819000800000020C7
:1019A00014000000D0010008CC1900081400002029
:1019B00064060000EC01000800080A0206040501A4
:0C19C00009000000000000000000000012
:040000050800019559
:00000001FF
